:020000040800F2
:100000007813002049010008792700087B270008A1
:100010007F270008832700088727000800000000CA
:100020000000000000000000000000008B27000816
:100030008D270008000000008F2700089127000886
:100040006301000863010008630100086301000800
:1000500063010008630100081D290008630100080E
:1000600063010008630100086301000863010008E0
:1000700063010008630100086301000863010008D0
:1000800063010008630100086301000863010008C0
:1000900063010008630100086301000863010008B0
:1000A00063010008630100086301000863010008A0
:1000B0000F2A00085D290008BD2900086301000817
:1000C0006301000863010008630100086301000880
:1000D000630100086301000863010008AD280008FF
:1000E0003B29000863010008630100086301000860
:1000F0006301000863010008630100086301000850
:10010000630100086301000863010008630100083F
:1001100063010008630100089327000859280008BC
:10012000630100086301000863010008630100081F
:10013000DFF810D009F058FD00480047752100088D
:10014000AFF3008078130020064880470648004738
:10015000FEE7FEE7FEE7FEE7FEE7FEE7FEE7FEE777
:10016000FEE7FEE74B020008310100080CB5002055
:10017000019000906C48006840F480306A49086043
:1001800000BF6948006800F4003000900198401CEE
:100190000190009818B90198B0F5A06FF1D16248AC
:1001A000006800F4003010B10120009001E0002050
:1001B00000900098012843D15C48006840F010008E
:1001C0005A4908600846006820F0030008600846A5
:1001D000006840F002000860534840685249486097
:1001E0000846406848600846406840F480604860BF
:1001F0000846406820F47C1048600846406840F497
:10020000E81048600846006840F08070086000BF51
:100210004548006800F000700028F9D04248406866
:1002200020F00300404948600846406840F0020062
:10023000486000BF3C48406800F00C000828F9D135
:100240000CBD10B5FFF792FF10BD10B53648006821
:1002500040F00100344908600846406834490840CD
:100260003149486008460068324908402E49086014
:100270000846006820F4802008600846406820F4A2
:10028000FE0048604FF41F008860FFF7DAFF4FF070
:1002900000602949086010BD10B50021002000222F
:1002A000214B5B6803F00C0121B1042906D0082919
:1002B00028D107E0214B224C236027E01F4B204C24
:1002C000236023E0184B5B6803F47010164B5B68E7
:1002D00003F48032022303EB904022B9194B4343CD
:1002E000174C23600DE0104B5B6803F4003323B11F
:1002F000144B4343124C236003E0104B4343104C18
:10030000236003E00D4B0E4C236000BF00BF064B83
:100310005B68C3F303130C4CE15C094B1B68CB40D7
:10032000074C236010BD0000001002400020024076
:100330000000FFF8FFFFF6FE08ED00E000127A0073
:100340000000002000093D00040000203149014365
:10035000314A1160704770B5002100230F22C47824
:1003600004B32D4C246804F4E064C4F5E064210A6D
:10037000C1F10403CA40447804FA03F184781440BC
:1003800021430901254C0678A155047804F01F0586
:100390000124AC4005786D11AD0005F1E025C5F8EC
:1003A000004109E0047804F01F050124AC401C4D15
:1003B0000678761145F8264070BD1A4A0A40024375
:1003C000154B1B1F1A60704739B1134A121D126872
:1003D0000243114B1B1D1A6006E00F4A121D1268E2
:1003E00082430D4B1B1D1A607047042808D14FF043
:1003F000E021096941F004014FF0E022116107E0BA
:100400004FF0E021096921F004014FF0E022116171
:10041000704700000000FA050CED00E000E400E089
:1004200080E100E080FFFF1F002044490860091DB3
:100430000860091D0860091D086041483F491431E2
:100440000860704700213D498279002A3AD00A4667
:10045000126803689A430B461A600A1D1268036803
:100460009A430B1D1A60027911440A6803681A4303
:100470000A60324A0832126803689A432F4B0833E5
:100480001A601A1D126803689A432C4B0C331A60C9
:100490004279102A0ED11A1F126803681A43274B9B
:1004A00008331A601A1D126803681A43234B0C3371
:1004B0001A600DE02149427911440A6803681A4321
:1004C0000A6005E0027911440A6803689A430A60E9
:1004D00070470021016001710C214171002181717F
:1004E00070471649103109680143144A10321160EF
:1004F000704701460020114A143212680A400AB1BE
:10050000012000E0002070470C491431086070475A
:10051000014600200022094B1B6803EA0102074B39
:1005200014331B680B4013B10AB1012000E0002016
:100530007047024914310860704700000004014010
:10054000FFFF0F0010B50446CC48844208D10121BA
:10055000042000F02DFB0021042000F029FB46E0E0
:10056000C748844208D10121082000F021FB002166
:10057000082000F01DFB3AE0C248844208D1012166
:10058000102000F015FB0021102000F011FB2EE0E0
:10059000BD48844208D10121202000F009FB002140
:1005A000202000F005FB22E0B848844208D1012158
:1005B000402000F0FDFA0021402000F0F9FA16E09A
:1005C000B348844208D10121802000F0F1FA0021D3
:1005D000802000F0EDFA0AE0AE48844207D1012104
:1005E000801500F0E5FA0021A01500F0E1FA10BD39
:1005F00010B50121084600F0DBFA0021012000F0CF
:10060000D7FA10BD2DE9F041024600250026002052
:1006100000230024002791F803C00CF00F0591F887
:1006200003C00CF0100CBCF1000F03D091F802C015
:100630004CEA050591F800C0BCF1000F31D01468F8
:1006400000202BE04FF0010C0CFA00F3B1F800C0D1
:100650000CEA03069E4220D183004FF00F0C0CFAE7
:1006600003F7BC4305FA03FC4CEA040491F803C009
:10067000BCF1280F06D14FF0010C0CFA00FCC2F8B7
:1006800014C00AE091F803C0BCF1480F05D14FF047
:10069000010C0CFA00FCC2F810C0401C0828D1D391
:1006A0001460B1F800C0BCF1FF0F34DD54680020C5
:1006B0002EE000F1080C4FF0010808FA0CF3B1F835
:1006C00000C00CEA03069E4221D183004FF00F0CBC
:1006D0000CFA03F7BC4305FA03FC4CEA040491F856
:1006E00003C0BCF1280F05D100F1080C08FA0CF882
:1006F000C2F8148091F803C0BCF1480F07D100F193
:10070000080C4FF0010808FA0CF8C2F81080401CE1
:100710000828CED35460BDE8F0814FF6FF71018008
:10072000022181700421C170704702460020936845
:100730000B400BB1012000E00020704701468868A3
:1007400080B2704702460020D3680B400BB10120F5
:1007500000E0002070470146C86880B27047016120
:100760007047416170470AB1016100E04161704723
:10077000C16070474FF480320A43826181618261B7
:1007800082698269704702460020434B18684FF621
:100790008073184040EA021008433F4B18607047CE
:1007A0003E49C8617047F0B50A4600230024002185
:1007B000002500F00046B6F1004F02D1364EF16937
:1007C00001E0354E7168C0F3034583B200F4401672
:1007D000B6F5401F08D121F070612F4E766826F0E3
:1007E00070662D4F7E6012E000F48016B6F5801F13
:1007F00006D1032606FA05F4A14341F0706106E034
:10080000460D360103FA06F6B14341F0706122B19C
:10081000460D360103FA06F6314300F00046B6F104
:10082000004F02D11C4EF16101E01B4E7160F0BD22
:1008300030B500228B071C0F0F2303FA04F2164B6E
:1008400008338C1053F824309343134C08348D1024
:1008500044F8253023468C1053F824308C07240F9D
:1008600000FA04F423430C4C08348D1044F825306E
:1008700030BD0A49DC3108607047000000080140C3
:10088000000C01400010014000140140001801401C
:10089000001C0140002001400000014000002042F7
:1008A000DF48006840F00100DD4908600846406804
:1008B000DC490840DA49486008460068DA490840DF
:1008C000D74908600846006820F480200860084680
:1008D000406820F4FE0048604FF41F0088607047B5
:1008E000CF49096821F48031CD4A11601146096869
:1008F00021F480211160B0F5803F03D0B0F5802F46
:100900000ED106E0C649096841F48031C44A11603D
:1009100007E0C349096841F4A021C14A116000E021
:1009200000BF00BF704710B5014600220023002021
:100930004A11012A02D1BA4C236806E0022A02D1E8
:10094000B74C236A01E0B64C636A01F01F02012430
:1009500094401C400CB1012000E0002010BD38B5CF
:10096000002000900024002500BF3120FFF7DBFFAE
:1009700005460098401C00900098B0F5A06F01D08B
:10098000002DF2D03120FFF7CEFF08B1012400E0A6
:100990000024204638BD01460020A14A106820F0FE
:1009A000F80040EAC10010607047A0490860704735
:1009B000024600209A4B586820F47C1042EA01035A
:1009C0001843974B5860704798490866704701462E
:1009D0000020934A506820F003000843506070479D
:1009E0008F48406800F00C007047014600208C4A98
:1009F000506820F0F0000843506070470146002026
:100A0000874A506820F4E060084350607047014610
:100A10000020834A506820F4605040EAC1005060D2
:100A2000704729B17E4A527A02437D4B5A7204E0E4
:100A30007B4A527A82437A4B5A7270477B49D8314B
:100A40000860704701460020754A506820F4404015
:100A50000843506070470021714A20321170704A7B
:100A600082F82010012802D004280AD104E00121D4
:100A70006B4A2032117005E00521694A203211705D
:100A800000E000BF00BF70476949086070476449D3
:100A9000096A0143624A1162704765494439086036
:100AA000704730B500210022002400235C4D6D68A2
:100AB00005F00C0121B1042905D0082923D105E056
:100AC0005C4D056022E05B4D05601FE0544D6D6894
:100AD00005F47012524D6D6805F48034022505EB63
:100AE00092421CB9544D554305600BE04C4D6D6866
:100AF00005F400351DB1504D5543056002E04D4DE4
:100B00005543056002E04B4D056000BF00BF444DFA
:100B10006D6805F0F0010909484D6B5C0568DD4022
:100B200045603F4D6D6805F4E061090A434D6B5C1B
:100B30004568DD4085603A4D6D6805F46051C90A2D
:100B40003E4D6B5C4568DD40C560354D6D6805F414
:100B50004041890B3A4D6B5CC568B5FBF3F5056107
:100B600030BD29B12E4A526902432D4B5A6104E02F
:100B70002B4A526982432A4B5A61704729B1284A4D
:100B800092690243264B9A6104E0254A92698243A6
:100B9000234B9A61704729B1214AD2690243204B05
:100BA000DA6104E01E4AD26982431D4BDA61704764
:100BB00029B11B4AD2680243194BDA6004E0184A93
:100BC000D2688243164BDA60704729B1144A126921
:100BD0000243134B1A6104E0114A12698243104B1D
:100BE0001A61704712494039086070470F49C8645C
:100BF00070470B49C87170470948406A40F08070DF
:100C000007494862704701460020054A92680A4039
:100C10000AB1012000E00020704701498872704746
:100C2000001002400000FFF8FFFFF6FE0000424205
:100C30008004424200127A0000093D0014000020A6
:100C40002400002010B50446BE48844208D101218A
:100C50008014FFF7ADFF0021A014FFF7A9FF16E0F5
:100C6000B948844208D101210014FFF7AEFF0021EA
:100C70002014FFF7AAFF0AE0B448844207D10121FB
:100C8000C013FFF7A2FF0021E013FFF79EFF10BD86
:100C900010B50022028802F441520B884C8823438D
:100CA0008C882343CC8823430C8923434C892343DA
:100CB0008C892343CC8923431A430280838B4FF2D0
:100CC000FF74234083830B8A038210BD2DE9F04F0C
:100CD00085B005460C464FF0000902274FF000088A
:100CE0004FF0010B0026B246A88B4FF2400108409E
:100CF000A88302202884B5F81C90A068022801D19E
:100D000000BF38E0A08810B94FF0010B01E04FF0B0
:100D1000020B8D48854200D100E000BF6846FFF716
:100D2000C0FEDDF800A0E088B0F5007F0AD14FEAF0
:100D30001A2000EB80004000A168B0FBF1F0401DDC
:100D400086B20BE04FEA4B10BAFBF0F000EB8000EC
:100D50004000A168B0FBF1F0401D86B20A20B6FB4E
:100D6000F0F606F00108A6EB0800C0F34F074FF6B7
:100D7000FF7000EA0828022F01DBFF2F02DD0227A7
:100D80004FF00008E08840EA080038432884A08833
:100D9000A1890843618808432188084340F4006022
:100DA00040EA0909A5F81C9005B0BDE8F08F0021C4
:100DB000018041808180C180018141818181C18127
:100DC0000721018270470021018041808180C1801C
:100DD0000221816000218181704721B1028842F0A7
:100DE0004002028004E002884FF6BF731A4002807E
:100DF000704721B1828B42F48062828304E0828B4F
:100E00004FF6FF331A408283704730B50024002329
:100E10000C110125A540ABB21AB185881D43858010
:100E200002E085889D43858030BD1AB183880B43DD
:100E3000838002E083888B43838070478181704781
:100E40000146888970474FF6FF62914204D00288BC
:100E500042F48072028004E002884FF6FF631A4079
:100E60000280704721B1828842F00402828004E04F
:100E700082884FF6FB731A408280704702884FF2D7
:100E8000FF731A40028002880A430280704701887B
:100E900041F480510180704721B1028842F4005230
:100EA000028004E002884DF6FF731A40028070470A
:100EB00002460020012901D0108B00E0908A704783
:100EC0000146088A7047B1F5804F04D1028842F488
:100ED0008042028004E002884BF6FF731A400280D1
:100EE00070470246002013890B400BB1012000E03F
:100EF00000207047CA4302817047F0B502460020C7
:100F000000240023002501F00F070126BE40B4B2E3
:100F10000B1101269E40B3B2968806EA0305168996
:100F2000264016B10DB1012000E00020F0BD10B543
:100F3000002201F00F040123A3409AB2D34303819E
:100F400010BD00000030014000380040003C00406F
:100F500010B50446FE48844208D10121C014FFF7B1
:100F600027FE0021E014FFF723FEC4E0B4F1804F18
:100F700008D101210846FFF728FE00210120FFF7D4
:100F800024FEB8E0F348844208D101210220FFF793
:100F90001CFE00210220FFF718FEACE0EE48844260
:100FA00008D101210420FFF710FE00210420FFF7E3
:100FB0000CFEA0E0E948844208D101210820FFF797
:100FC00004FE00210820FFF700FE94E0E44884427C
:100FD00008D101211020FFF7F8FD00211020FFF7B4
:100FE000F4FD88E0DF48844208D101212020FFF78A
:100FF000ECFD00212020FFF7E8FD7CE0DA48844288
:1010000008D101214014FFF7D3FD00216014FFF740
:10101000CFFD70E0D548844209D10121C804FFF713
:10102000C7FD00214FF40020FFF7C2FD63E0D04868
:10103000844209D101210805FFF7BAFD00214FF4D0
:101040008010FFF7B5FD56E0CA48844209D101215E
:101050004805FFF7ADFD00214FF40010FFF7A8FD94
:1010600049E0C548844208D101214020FFF7ADFD89
:1010700000214020FFF7A9FD3DE0C048844208D18F
:1010800001218020FFF7A1FD00218020FFF79DFDB9
:1010900031E0BB48844208D101218015FFF795FD5E
:1010A0000021A015FFF791FD25E0B648844209D143
:1010B00001210804FFF77CFD00214FF48030FFF789
:1010C00077FD18E0B048844209D101214804FFF7B8
:1010D0006FFD00214FF40030FFF76AFD0BE0AB48D5
:1010E000844208D101218804FFF762FD00214FF4FA
:1010F0008020FFF75DFD10BD00220288944B9842CE
:101100000ED0994B98420BD0B0F1804F08D0914B44
:10111000984205D0904B984202D0904B984204D10F
:101120004FF68F731A404B881A438D4B984207D065
:101130008C4B984204D04FF6FF431A40CB881A4399
:1011400002808B8883850B880385814B98420BD066
:10115000854B984208D08B4B984205D08A4B9842D9
:1011600002D08A4B984201D10B7A038601238382F5
:10117000704770B5002400220023058C4FF6FE76E0
:1011800035400584028C8388048B4FF68F752C4084
:10119000B51E2C400D882C43751E2A400D892A430C
:1011A0004D882A436A4DA8420BD06F4DA84208D003
:1011B000744DA84205D0744DA84202D0734DA84288
:1011C00013D14FF6F7752A404D892A434FF6FB7528
:1011D0002A408D882A434FF6FF652B404FF6FF5576
:1011E0002B408D892B43CD892B4383800483CD886D
:1011F0008586028470BD70B5002400220023058C12
:101200004FF6EF7635400584028C8388048B48F6D0
:10121000FF752C404FF6FF452C400D884FF6FF76AA
:1012200006EA05252C434FF6DF752A400D8906EAAC
:1012300005152A434D8806EA05152A43444DA84260
:1012400002D0494DA8421DD14FF67F752A404D89E5
:101250004FF6FF7606EA05152A434FF6BF752A407A
:101260008D8806EA05152A434FF6FF352B404FF2CD
:10127000FF752B408D8906EA85052B43CD8906EA4B
:1012800085052B4383800483CD880587028470BD48
:1012900070B5002400220023058C4FF6FF66354010
:1012A0000584028C8388848B4FF68F752C404FF613
:1012B000FC752C400D882C434FF6FF552A400D89B4
:1012C0004FF6FF7606EA05252A434D8806EA0525EE
:1012D0002A431F4DA84202D0234DA8421DD14FF2F0
:1012E000FF752A404D894FF6FF7606EA05252A4309
:1012F0004FF6FF352A408D8806EA05252A434EF62B
:10130000FF752B404DF6FF752B408D8906EA0515BC
:101310002B43CD8906EA05152B4383808483CD8832
:101320008587028470BD70B5002200230024058CDF
:101330004EF6FF7635400584038C8488828B48F610
:10134000FF752A404FF6FF452A400D8820E0000037
:10135000002C01400004004000080040000C004048
:10136000001000400014004000340140004C0140D7
:10137000005001400054014000180040001C004093
:10138000002000400040014000440140004801406E
:101390004FF6FF7606EA05252A434DF6FF752B40EA
:1013A0000D8906EA05352B434D8806EA05352B43A2
:1013B000FA4DA84202D0FA4DA84208D14BF6FF756B
:1013C0002C408D894FF6FF7606EA85152C438480E4
:1013D0008283CD88A0F84050038470BD828B4FF289
:1013E000FF331A408283828B4FF6FF7303EA012397
:1013F0001A4382837047F0B50C461546002200213F
:101400000026078C4EF6FF7C07EA0C070784828BC8
:10141000018C4FF6FF7707EA043640F6FF473A4063
:101420004FF6FF7707EA05273A434FF6FF7707EABB
:1014300003373A43D94FB8420ED0D94FB8420BD0F8
:10144000B0F1804F08D0D74FB84205D0D64FB84240
:1014500002D0D64FB84206D14DF6FF77394046F458
:101460008057394305E047F6FF57394044F4805729
:10147000394382830184F0BD828B4FF6F3731A40A7
:101480008283828B0A4382837047F0B50C461546EF
:10149000002200210026078C4FF6FF6C07EA0C079C
:1014A0000784828B018C4FF6FF7707EA04264FF6FC
:1014B0000C773A404FF6FF7707EA03172F433A437A
:1014C000B64FB8420ED0B64FB8420BD0B0F1804FF5
:1014D00008D0B44FB84205D0B34FB84202D0B34F92
:1014E000B84206D14FF6FF57394046F4807739436A
:1014F00005E04FF2FF57394044F480773943828347
:101500000184F0BD028B4FF2FF331A400283028B3D
:101510004FF6FF7303EA01231A4302837047F0B5C5
:101520000C461546002200210026078C4FF6EF7C62
:1015300007EA0C070784028B018C4FF6FF7707EA56
:10154000041640F6FF473A404FF6FF7707EA0337A5
:101550003A434FF6FF7707EA05273A438F4FB842E1
:101560000ED08F4FB8420BD0B0F1804F08D08D4FC6
:10157000B84205D08C4FB84202D08C4FB84206D149
:101580004FF6DF77394046F01007394305E04FF654
:101590005F77394044F01007394302830184F0BD7E
:1015A000028B4FF6F3731A400283028B0A430283C5
:1015B0007047F0B50C46154600220021068C4FF608
:1015C000FE773E400684028B018C4FF60C7632404B
:1015D0007E1C06EA03162E433243704EB0420ED0F4
:1015E0006F4EB0420BD0B0F1804F08D06D4EB0427C
:1015F00005D06D4EB04202D06C4EB04206D14FF6CF
:10160000FD76314044F00106314305E04FF6F576B2
:10161000314044F00106314302830184F0BD70B5CE
:1016200005460C465D4885420ED05D4885420BD08C
:10163000B5F1804F08D05B48854205D05A488542B5
:1016400002D05A48854200D100E000BF208850B93E
:101650002389A28861882846FFF7ABFFE1882846E6
:10166000FFF79EFF25E0208804280AD12389A2885D
:1016700061882846FFF753FFE1882846FFF742FFBD
:1016800017E0208808280AD12389A2886188284683
:10169000FFF7FBFEE1882846FFF7EEFE09E023890D
:1016A000A28861882846FFF7A6FEE1882846FFF752
:1016B00095FE70BD2DE9F04105460C460026012738
:1016C000608808B9022600E00026A088012801D120
:1016D000022700E001272088A0B92389A288618819
:1016E0002846FFF766FFE1882846FFF759FF238960
:1016F0003A4631462846FFF712FFE1882846FFF7B1
:1017000001FF13E02389A28861882846FFF707FFBD
:10171000E1882846FFF7F6FE23893A4631462846F7
:10172000FFF747FFE1882846FFF73AFFBDE8F08161
:101730000A884B881A438B881A43CB881A430B8933
:101740001A434B891A438B891A43A0F844207047E7
:101750004FF6FF71818000210180C18041800172BC
:1017600070470021018041808180C18001814181D9
:101770008181C181704700210180418001218180E8
:101780000021C1800181704700210180418081805A
:10179000C18001814181818170470000002C01409E
:1017A000003401400004004000080040000C0040EC
:1017B00021B1028842F00102028004E002884FF663
:1017C000FE731A400280704731B1B0F8442042F4F1
:1017D0000042A0F8442005E0B0F84420C2F30E0215
:1017E000A0F8442070471AB183890B43838102E03B
:1017F00083898B43838170478182704741EA02036A
:10180000A0F8483070471AB183890B43838102E006
:1018100083898B438381704701894FF6F8721140A9
:10182000018170470A46002101894FF68F731940E4
:1018300011430181704730B504460D4629462046C4
:10184000FFF7F0FF208940F00700208130BD2DE92F
:10185000F04104460D4616461F46602D06D13B4614
:10186000012231462046FFF75AFE05E03B460122A1
:1018700031462046FFF79DFE29462046FFF7D2FF5E
:10188000208940F007002081BDE8F08130B50C468A
:1018900000210189C9B24FF6FF7505EA03251543FA
:1018A00025432943018130BD2DE9F04105460E460F
:1018B00017469846002443463A4631462846FFF7E5
:1018C000E5FF2C894FF6F870044044F007044FF60A
:1018D0008F70044044F070042C81BDE8F081F0B5B5
:1018E00004460D4616461F463B46324629462046CC
:1018F000FFF7CCFF208940F480402081F0BD0185B6
:10190000828270470A46002101884FF68F73194082
:10191000114301807047F0B50C4615461E46002164
:10192000002200230189028B038C4FF6F87739409F
:1019300021434FF6FC473A4040F201173A434FF635
:10194000DD773B404FF6FF7707EA06172F433B430F
:10195000018102830384F0BD0A460021018B4FF60A
:101960008F7319401143018370470A460021018B90
:1019700048F6FF7319404FF6FF7303EA0223194339
:10198000018370470A460021818B4FF68F731940FF
:101990001143818370470A460021818B48F6FF730B
:1019A00019404FF6FF7303EA0223194381837047FE
:1019B00021B1028842F08002028004E002884FF6E2
:1019C0007F731A400280704721B1828842F004027E
:1019D000828004E082884FF6FB731A408280704751
:1019E00021B1828842F00802828004E082884FF6AA
:1019F000F7731A408280704721B1828842F0010259
:101A0000828004E082884FF6FE731A40828070471D
:101A10000A460021018B4FF6F773194011430183E9
:101A200070470A460021018B4FF2FF7319404FF6B1
:101A3000FF7303EA02231943018370470A4600211A
:101A4000818B4FF6F77319401143818370470A4623
:101A50000021818B4FF2FF7319404FF6FF7303EAA9
:101A600002231943818370470A460021018B4FF6F8
:101A7000FB7319401143018370470A460021018B13
:101A80004FF6FF3319404FF6FF7303EA0223194361
:101A9000018370470A460021818B4FF6FB73194082
:101AA0001143818370470A460021818B4FF6FF3333
:101AB00019404FF6FF7303EA0223194381837047ED
:101AC0000A460021018B4FF67F73194011430183B1
:101AD00070470A460021018BC1F30E014FF6FF73D8
:101AE00003EA02231943018370470A460021818BD0
:101AF0004FF67F7319401143818370470A460021D6
:101B0000818BC1F30E014FF6FF7303EA02231943E1
:101B1000818370470A460021018C4FF6FD731940FE
:101B20001143018470470A460021018C4FF6F77378
:101B300019401143018470470A460021018C4FF679
:101B4000DF7319404FF6FF7303EA02131943018450
:101B500070470A460021018C4FF67F7319404FF6FB
:101B6000FF7303EA02131943018470470A460021F8
:101B7000018C4FF6FF5319404FF6FF7303EA02231F
:101B80001943018470470A460021018C4FF2FF730C
:101B900019404FF6FF7303EA02231943018470478B
:101BA0000A460021018C4DF6FF7319404FF6FF7372
:101BB00003EA023319430184704730B5002301243E
:101BC0008C40A3B2048C9C430484048C02FA01F57B
:101BD000ADB22C43048430BD30B5002304248C40C6
:101BE000A3B2048C9C430484048C02FA01F5ADB2C8
:101BF0002C43048430BD70B50346002000241846F1
:101C0000183001258D40ACB21D8CA5431D8409B14F
:101C1000082909D100EB6100056825F07005056011
:101C20000568154305600EE00D1FC5F34E052844F9
:101C3000056825F4E045056005684FF6FF7606EA7D
:101C400002263543056070BD21B1028842F00202D0
:101C5000028004E002884FF6FD731A40028070474C
:101C600021B1028842F00402028004E002884FF6AB
:101C7000FB731A400280704721B1828842F08002D3
:101C8000828004E082884FF67F731A40828070471A
:101C900002884FF6F7731A40028002880A430280D6
:101CA000704782884FF68F731A40828082880A4379
:101CB0008280704702894FF6F8731A4002810289C8
:101CC0000A430281704702894FF67F731A400281EE
:101CD00002890A4302817047818470478185704779
:101CE000818670470187704781877047A0F8401050
:101CF000704702884FF6FF431A40028002880A4369
:101D0000028070470146888E70470146088F7047F1
:101D10000146888F70470146B1F840007047014680
:101D2000888C70470146088D704702460020138A50
:101D30000B400BB1012000E000207047CA43028233
:101D4000704730B50246002000230024158A05EABA
:101D50000103958905EA010413B10CB1012000E0EB
:101D6000002030BDCA4302827047000010B504460F
:101D7000FB48844209D101218803FEF719FF0021A5
:101D80004FF48040FEF714FF32E0F648844209D158
:101D900001214804FEF719FF00214FF40030FEF73F
:101DA00014FF25E0F048844209D101218804FEF7A0
:101DB0000CFF00214FF48020FEF707FF18E0EB48EE
:101DC000844209D10121C804FEF7FFFE00214FF42F
:101DD0000020FEF7FAFE0BE0E548844208D101211D
:101DE0000805FEF7F2FE00214FF48010FEF7EDFE2D
:101DF00010BD2DE9F04786B005460E460024A246E8
:101E000000BFA1460027B08900B100BF2F462C8A31
:101E10004CF6FF700440F08804432C82AC894EF6E7
:101E2000F3100440B08831890843718908430443A2
:101E3000AC81AC8A4FF6FF400440B0890443AC82C9
:101E400001A8FEF72EFEC648874202D1DDF810A099
:101E500001E0DDF80CA0A88900F4004040B10AEBD5
:101E6000CA0000EB0A1031684900B0FBF1F807E046
:101E70000AEBCA0000EB0A1031688900B0FBF1F8E8
:101E80006420B8FBF0F004012009642101FB1089F3
:101E9000A88900F4004040B1322000EBC900B0FB3B
:101EA000F1F000F00700044308E0322000EB0910D5
:101EB0006421B0FBF1F000F00F0004432C8106B068
:101EC000BDE8F0874FF41651016000218180C18088
:101ED00001810C21418100218181704710B50246AA
:101EE0000020108A4FF2FF0318400B884C882343D0
:101EF0008C882343CC8823431843108210BD0021D3
:101F0000018041808180C180704721B1828942F483
:101F10000052828104E082894DF6FF731A4082816B
:101F20007047F0B50346002400260025002040F647
:101F30006A17B94200D100BF1846C1F3421401F03C
:101F40001F06012707FA06F5012C01D10C3004E029
:101F5000022C01D1103000E014301AB107682F4371
:101F6000076002E00768AF430760F0BD1AB1838ADB
:101F70000B43838202E0838A8B4383827047028A09
:101F80004FF6F0731A400282028A0A4302827047B7
:101F900082894FF2FF731A40828182890A438281CB
:101FA000704721B1828942F00202828104E0828975
:101FB0004FF6FD731A4082817047028A4FF6DF7335
:101FC0001A400282028A0A430282704721B1028AC1
:101FD00042F48042028204E0028A4BF6FF731A4008
:101FE00002827047C1F308028280704701468888E8
:101FF000C0F308007047818941F001018181704779
:10200000028BD2B20283028B42EA01220283704722
:10201000028B02F47F420283028B0A4302837047E1
:1020200021B1828A42F02002828204E0828A4FF645
:10203000DF731A408282704721B1828A42F0100217
:10204000828204E0828A4FF6EF731A4082827047E0
:1020500021B1828A42F00802828204E0828A4FF62D
:10206000F7731A408282704721B1828942F400429C
:10207000828103E08289C2F30E028281704721B11E
:10208000828A42F40062828204E0828A4FF2FF7305
:102090001A4082827047828A4FF6FB731A4082820E
:1020A000828A0A438282704721B1828A42F0020208
:1020B000828204E0828A4FF6FD731A408282704762
:1020C00002460020B1F5007F00D100BF13880B400D
:1020D0000BB1012000E00020704701F40072B2F55E
:1020E000007F00D100BFCA430280704770B502462E
:1020F000002400230025002040F66A16B14200D1DA
:1021000000BFC1F3421501F01F03012606FA03F3D5
:10211000012D02D19689334006E0022D02D1168AA4
:10212000334001E0968A33400C12012606FA04F48B
:102130001688344013B10CB1012000E0002070BDBE
:1021400010B50022002340F66A14A14200D100BF5E
:102150000A1201249440A3B2DC43048010BD0000A5
:10216000003801400044004000480040004C00405E
:10217000005000401FB500F009FF00F005FE00F020
:1021800046FE00F073FD00F0A1FD01F06AFC01F0D5
:102190005AFD07F00BF801F096FE00214FF0804049
:1021A000FFF706FB00F04FFD0021FE48FFF700FBA4
:1021B0000021FD48FFF7FCFA06F042FB0021FB4836
:1021C00006F038FA40B12020F94908600120091FC3
:1021D00008600220091D08604FF6FF7001F09DF8AD
:1021E0004FF6FF70F34908801F20F3490880F3A0E1
:1021F000202130234FF4F072CDE900100021084671
:1022000001F0CDFB0020EB4908804FF6FF70EA4952
:1022100008804FF60740E7490880EDA010210B46E3
:102220004FF4F072CDE90010A821002001F0B7FBB7
:102230004FF40051EA48FEF792FA07F029F801201E
:1022400007F043F800BFE7A007F0F1FA0028FAD042
:1022500000BF0022E6A1E9A007F06CF80028F8D042
:10226000012007F07CF800BFE8A2EAA1012007F0F6
:10227000C2F80028F8D01421E84807F003FADFA2DA
:10228000E7A1E94807F01CFDE74810210B464FF491
:10229000F072CDE90010A821002001F080FBDF4A98
:1022A000E2A1E14807F00CFDDF4810210B464FF496
:1022B000F072CDE90010BC21002001F070FBD5A226
:1022C000DCA1D94807F0FCFCD74810210B464FF49D
:1022D000F072CDE90010D021002001F060FBD7485A
:1022E000B0F800046FF30E00D449A1F800040846CA
:1022F000B0F8000420F40040A1F800040020AD492B
:10230000088023E202A801F0EEFC012825D19DF807
:102310000B309DF80A20CAA1CE4807F0D1FCCD4869
:1023200018210B464FF4F072CDE900102421002053
:1023300001F035FB9DF809309DF80820C6A1CA4878
:1023400007F0BEFCC84818210B464FF4F072CDE9E7
:1023500000104021002001F022FB01F05EFD044648
:1023600007F0C6FBC14908800020C149087011E090
:10237000C0498E4806F0F3F9BF490870BF4800888D
:10238000BF4909880844BD490880B9480078401C05
:10239000B7490870B64800780528E9DBB7480088D7
:1023A000052190FBF1F0B6490880B3480078002879
:1023B0007ED1B4480068B449096888423DD1002004
:1023C000B2490860B2490860B249086020207849E3
:1023D000091F08600120091D08600220091F08600C
:1023E000ADA1B24807F06CFCB04818210B464FF481
:1023F000F072CDE900106021002001F0D0FAACA10C
:10240000B14807F05DFCB04818210B464FF4F0725C
:10241000CDE900107C21002001F0C1FA00216148C3
:10242000FFF7C6F900216048FFF7C2F90023112227
:102430009E49184607F071F985E192484068924933
:102440000968884249D10020904908609148006895
:102450000F2809DA20205649091F0860012008606A
:102460000220091D086007E08A4800680F2803DB86
:1024700002204F49091F086094A1994807F020FCE9
:10248000974818210B464FF4F072CDE900106021F7
:10249000002001F084FA01214248FFF789F97D48C4
:1024A00090A10268884807F00BFC8748182100E0DB
:1024B0003EE10B464FF4F072CDE900107C21002084
:1024C00001F06DFA8049864807F04CFA00231C227F
:1024D0008349184607F021F935E16A4880686A495E
:1024E000096888423AD10020684908606849086054
:1024F0006849086020202E490860012008600220F9
:10250000086065A1694807F0DBFB684818210B46A5
:102510004FF4F072CDE900106021002001F03FFA85
:1025200063A1694807F0CCFB674818210B464FF4BC
:10253000F072CDE900107C21002001F030FA00217A
:102540001848FFF735F900211748FFF731F9002344
:1025500011225649184607F0E0F8F4E04948C068EF
:102560004949096888421BD120201149086001208F
:10257000091F08600220086001204449086053A137
:10258000574807F09DFB564818210B464FF4F07250
:10259000CDE900106021002001F001FA0121A7E03F
:1025A000D1E0000000100040001400409409002019
:1025B000140C01408C0000208E000020202053438A
:1025C000552020546F696C657420202000000000A5
:1025D000455350383236362053544152540000008F
:1025E000002001403139322E3136382E312E310063
:1025F00077696C6466697265000000005343555347
:102600006D617274546F696C6574000031383030DC
:102610000000000038303830000000004C0400207A
:10262000574946493A257300B004002049503A25DD
:1026300073000000506F72743A257300740B002011
:1026400074656D70657261747572653A25642E25C6
:10265000640000008C03002068756D6964697479FA
:102660003A25642E256400009C0300207800002099
:102670002E000020580B0020440000202C000020D9
:10268000860300203000002040000020800122420C
:102690006C00002048000020526F6F6D206973208D
:1026A000617661696C61626C65000000E003002086
:1026B000202020202020202020202020202020201A
:1026C000202020200000000004040020526F6F6DC5
:1026D000206973206275737920202020202020003B
:1026E000BC030020253264206D696E2061676F0095
:1026F0001748FFF75DF81748AFF21801026816484F
:1027000007F0DEFA144818210B464FF4F072CDE9B9
:1027100000107C21002001F042F90F490F4807F01A
:1027200021F900231C220D49184606F0F6FF0AE0A5
:102730000BA018210B464FF4F072CDE90010602178
:10274000002001F02CF900200A490880DAE5000099
:10275000001000404800002004040020BC030020BA
:102760004D6561737572656D656E74204572726F2B
:10277000722100002C000020704700BFFEE700BF60
:10278000FEE700BFFEE700BFFEE7704770477047F7
:10279000704710B50121A648FFF7D3FA00285AD098
:1027A000A4480068401CA349086008460068A24984
:1027B0000968884202DD00209E4908609D48006843
:1027C0009D490968884207D19C480068401C9B4984
:1027D0000860002097490860984800680F2803DCCB
:1027E000964800680F2814D1944800681E2810DA13
:1027F0009348C0689349096888420AD001219248E9
:10280000FEF7D6FF8D4800681D2802D100208F49B1
:1028100008608A4800681E2812DB8C48006878B976
:1028200000218948FEF7C4FF202089490860012063
:10283000091F08600220086001208649086006E040
:1028400082480068012802D10020824908600121E5
:102850007748FFF787FA10BD10B501217A48FFF7D6
:1028600070FA10B37C480068401C7B490860084639
:1028700000687A490968884202DD002076490860CC
:10288000754800687549096888420AD10020724974
:1028900008606F480838006880F020006C490839EB
:1028A000086001216848FFF75DFA10BD10B540F2DD
:1028B00025516B48FFF71AFCD8B16948FFF796FB22
:1028C000C4B26848B0F80004C0F30E0040F2FF3113
:1028D00088420EDA6349B1F80014C1F30E00411CBE
:1028E000604AB2F8002461F30E025E49A1F80024A8
:1028F0000C5440F224415A48FFF7F8FB68B159489C
:10290000B0F8000420F4004000F500405549A1F85B
:1029100000045348FFF76AFBC4B210BD10B5012094
:10292000FDF7F6FD40B100231A224FA1184606F02C
:10293000F4FE0120FDF7FDFD10BD10B54FF4005071
:10294000FDF7E6FD48B101204049086000204149FB
:1029500008604FF40050FDF7ECFD10BD10B50121EB
:102960004848FFF7EEF940B34748008847490968EF
:1029700088420FDA4648008846490968884204DDE3
:102980002F4800682F49086013E02D4840682D4902
:1029900008600EE03E4800883E490968884204DD30
:1029A000274880682749086003E02548C068254912
:1029B000086001213348FFF7D5F910BD10B501219A
:1029C0003548FFF7BEF908B334480068401C334966
:1029D00008600846006832490968884202D9002028
:1029E0002E4908602D4800682D490968884209D1A0
:1029F00000202A4908601748006880F00100294932
:102A0000C1F8800101212448FFF7ACF910BD10B5D1
:102A100001218807FFF795F940B123480068401C61
:102A20002149086001218807FFF79CF910BD0000CB
:102A300000100040500000206400002048000020EA
:102A40003000002040000020001400406C000020F6
:102A5000140C014080012242580000206800002030
:102A600000480040740B002048454C502120546F12
:102A7000696C65742070617061657220706C65614D
:102A80007365210000040040780000207C000020D5
:102A90008603002070000020000800408000002015
:102AA00084000020000022427400002008B54FF48A
:102AB000C060FDF74BFC36208DF8000001208DF83A
:102AC000010003208DF8020001208DF80300684604
:102AD000FDF741FC4FF4C060FDF738FC37208DF85E
:102AE000000001208DF8010002208DF80200012075
:102AF0008DF803006846FDF72EFC4FF4C060FDF72B
:102B000025FC1D208DF8000001208DF801008DF8B6
:102B100002008DF803006846FDF71DFC08BD0EB5E8
:102B200001211020FEF737F840F2E730ADF804003D
:102B30004720ADF800000020ADF80600ADF8020017
:102B40008DF8080069464548FEF7D6FA012143484A
:102B5000FFF7F4F8012211464048FEF744FE012138
:102B60003E48FEF725FE0EBD0EB501212020FEF7E2
:102B700012F840F2E730ADF804004720ADF800004D
:102B80000020ADF80600ADF802008DF80800694697
:102B90003348FEF7B1FA01213148FFF7CFF801229F
:102BA00011462F48FEF71FFE01212D48FEF700FEBB
:102BB0000EBD0EB501210220FDF7EDFF40F2E7301A
:102BC000ADF804004720ADF800000020ADF8060085
:102BD000ADF802008DF8080069462248FEF78CFA2D
:102BE00001212048FFF7AAF8012211461D48FEF7EF
:102BF000FAFD01211B48FEF7DBFD0EBD0EB50121DC
:102C00000420FDF7C8FF40F2E730ADF8040047208C
:102C1000ADF800000020ADF80600ADF802008DF818
:102C2000080069461048FEF767FA01210E48FFF7D1
:102C300085F8012211460C48FEF7D5FD01210A480E
:102C4000FEF7B6FD0EBD10B5FFF730FFFFF767FFCB
:102C5000FFF78AFFFFF7ADFF10BD00000010004036
:102C600000140040000400400008004008B50121A5
:102C70001020FDF783FF0120ADF8000010208DF833
:102C8000030003208DF8020069460248FDF7BAFCF4
:102C900008BD00000010014008B54FF4E060FDF7EA
:102CA00055FB06208DF8000000208DF80100012062
:102CB0008DF802008DF803006846FDF74CFB2820D4
:102CC0008DF800006846FDF746FB08BD0EB50121F2
:102CD0000520FDF753FF01211120FDF74FFFFFF7FE
:102CE000DBFF0120ADF8080004208DF80B0002A9DD
:102CF0002348FDF787FC00210846FDF799FD0120D8
:102D0000009000208DF8040008208DF805000120B7
:102D10008DF806006846FDF795FB4FF40050ADF8BE
:102D2000080004208DF80B0002A91648FDF76AFC84
:102D30000D210220FDF77CFD4FF400500090002093
:102D40008DF804000C208DF8050001208DF8060098
:102D50006846FDF777FB0EBD70B504460D46294663
:102D60002046FDF7E2FC012808D100BF2946204695
:102D7000FDF7DBFC0128F9D0012070BD0020FCE745
:102D8000000801400010014008B501210820FDF7AE
:102D9000F5FE2020ADF8000010208DF80300032080
:102DA0008DF8020069460F48FDF72CFC0120ADF8B4
:102DB000000069460B48FDF725FC0220ADF8000035
:102DC00069460848FDF71EFC20210648FDF7C7FCB0
:102DD00001210448FDF7C3FC02210248FDF7BFFCB6
:102DE00008BD0000000C014008B54FF4A060FDF7DD
:102DF000ADFA25208DF8000001208DF801008DF836
:102E000002008DF803006846FDF7A5FA08BD00B57D
:102E100085B001210420FDF7B1FE01218803FDF7F3
:102E2000ADFE4FF40070ADF8100018208DF81300BF
:102E300003208DF8120004A95248FDF7E3FB4FF47C
:102E40008060ADF8100004208DF8130004A94D48EF
:102E5000FDF7D8FB4FF4E13000900020ADF80400FE
:102E6000ADF80600ADF80800ADF80C000C20ADF888
:102E70000A0069464448FEF7BCFFFFF7B5FF012290
:102E800040F225514048FFF74CF801213E48FFF73A
:102E90003CF805B000BD70B504460D4629462046F5
:102EA000FFF7A0F800BF80212046FFF709F90028AE
:102EB000F9D070BD2DE9F04107460D4616460024B5
:102EC00005E0295D3846FFF7E6FF601CC4B2B44256
:102ED000F7DB00BF40213846FFF7F2F80028F9D0B1
:102EE000BDE8F08170B506460C46002500BF615D67
:102EF0003046FFF7D0FF6D1C605D0028F7D100BFA2
:102F000040213046FFF7DCF80028F9D070BD2DE9EC
:102F1000F04105460C46260AE7B231462846FFF73F
:102F200061F800BF80212846FFF7CAF80028F9D0D1
:102F300039462846FFF756F800BF80212846FFF79C
:102F4000BFF80028F9D0BDE8F08170B504460D4601
:102F5000E1B20D48FFF746F800BF80210A48FFF7AD
:102F6000AFF80028F9D0204670BD10B5044600BF68
:102F700020210548FFF7A4F80028F9D00248FFF700
:102F800035F810BD000801400038014010B56FF061
:102F90000400FDF72AFA2E4800682E49B0FBF1F034
:102FA0002D4908700846007800EB4001C1EBC010C5
:102FB0004FF6FF7101EAC0002849088010BD0146A4
:102FC000254A12784A434FF0E0235A6100229A6161
:102FD0001A46126942F001021A6100BF4FF0E02266
:102FE000106900F001021AB100F48032002AF5D015
:102FF0004FF0E022126922F001024FF0E0231A6143
:1030000000229A6170470146144A12884A434FF0E1
:10301000E0235A6100229A611A46126942F00102C5
:103020001A6100BF4FF0E022106900F001021AB1EE
:1030300000F48032002AF5D04FF0E022126922F02D
:1030400001024FF0E0231A6100229A6170470000EC
:103050000000002000127A00880000208A00002072
:1030600070B50546002405E0601CC4B2C82C01DD23
:10307000002070BD02214948FDF733FF0028F3D03E
:1030800029464648FDF7DAFE002405E0601CC4B27C
:10309000C82C01DD0020ECE701214048FDF721FFAD
:1030A0000028F3D03D48FDF7CBFEC0B2E1E700B504
:1030B00087B001210820FDF761FD01218803FDF79C
:1030C0006AFD4FF42040ADF8180018208DF81B0061
:1030D00003208DF81A0006A93148FDF793FA4FF442
:1030E00020412F48FDF73BFB0020ADF804004FF4D2
:1030F0008270ADF806000020ADF808000220ADF89F
:103100000A000120ADF80C004002ADF80E000020CE
:10311000ADF81000ADF812000720ADF8140001A9B9
:103120001E48FDF7B5FD01211C48FDF756FEFF20A6
:10313000FFF796FF07B000BD10B50446174800889A
:103140004FF6C7710840154908800846008820439B
:10315000088001211148FDF740FE10BD2DE9F04126
:1031600005460E460027002414E006E0781CC7B28E
:10317000C82F02DD0020BDE8F08102210748FDF7DD
:10318000B0FE0028F2D0295D0448FDF757FE002765
:10319000601C84B2B442E8DB0120ECE70038004058
:1031A000000C014008B501214FF48470FDF7E6FCE6
:1031B0004FF4E070ADF8000010208DF803000320FC
:1031C0008DF802006946F848FDF71CFA4FF4E071EB
:1031D000F548FDF7C4FA4FF48040ADF80000102028
:1031E0008DF8030003208DF802006946EF48FDF7D3
:1031F00009FA4FF48041ED48FDF7B1FA0020EC499F
:103200000860EC49C1F8A001E949091F086078206D
:10321000FFF7F9FE0120E749C1F89801FFF747FFE2
:1032200008BD2DE9F04105460E464FF6FF70B6FB8E
:10323000F0F7002416E0BC420CD14FF6FF70B6FB4D
:10324000F0F100FB1168C4EB044148194146FFF757
:1032500085FF06E0C4EB044148194FF6FF71FFF704
:103260007DFF641CBC42E6D9BDE8F08101B50020B9
:10327000D149086001216846FFF7D3FF08BD01B5B9
:103280000120CD49086001216846FFF7CAFF08BD4B
:1032900038B504460020009020128DF80000E0B2FE
:1032A0008DF801000120C449086002216846FFF73B
:1032B000B8FF38BD2DE9F04104460D4616461F46BD
:1032C0002A20FFF7D3FF2012FFF7D9FFE0B2FFF764
:1032D000D6FF3012FFF7D3FFF0B2FFF7D0FF2B205D
:1032E000FFF7C4FF2812FFF7CAFFE8B2FFF7C7FFD6
:1032F0003812FFF7C4FFF8B2FFF7C1FF2C20FFF729
:10330000B5FFBDE8F0810120A949091D086070479B
:103310000020A749091D08607047F8B50546002040
:10332000009028128DF80000E8B28DF80100EF231C
:103330001A4600210846FFF7BDFF00240DE09DF866
:1033400000009E4901F814009DF80100012101EBE5
:1033500044019A4A5054601C84B2B4F5107FEEDBED
:10336000012095490860002606E04FF490619348DB
:10337000FFF757FF701C86B2642EF6DBF8BD2DE90F
:10338000F05F0746884691469A46DDF828B000244B
:1033900000250026A9EB0700401CAAEB0801491CE8
:1033A00048434500B5F5906F03D9A5F590664FF4F5
:1033B000906553464A4641463846FFF77BFF20E07A
:1033C00000240AE04FEA2B207C4A02F81400600037
:1033D000401C02F800B0601C84B2B4EB550FF1D36E
:1033E00001207549086029467448FFF71AFF06B99D
:1033F00008E0B6F5906F02D9A6F5906601E0354673
:103400000026DDE700BFBDE8F09F70B504460D461D
:103410002B46224629462046FFF74CFF6848008885
:10342000FFF736FF70BD70B504460D4616462B46B5
:10343000224629462046FFF73DFF3046FFF728FF8A
:1034400070BD2DE9FF4F87B00746884691460020A2
:103450000590049001900A98804529D14A4641463A
:1034600038460A9BFFF726FF002001900FE05448E2
:1034700000880112514A019802F810105048017852
:1034800001984000401C11540198401C0190A9EB88
:10349000070101988142EAD8012047490860A9EB59
:1034A000070041004548FFF7BCFE0BB0BDE8F08FB8
:1034B000A9EB07040A98A0EB08050397CDF808804C
:1034C000002C02DD4FF0010A06E014B94FF0000AAB
:1034D00002E04FF0FF3A6442002D02DD4FF0010B95
:1034E00006E015B94FF0000B02E04FF0FF3B6D42D4
:1034F000AC4201DD264600E02E460020069021E089
:10350000029A91B2039A90B2FFF77FFF0598204488
:1035100005900498284404900598B04205DD05986C
:10352000801B05900398504403900498B04205DD39
:103530000498801B04900298584402900698401CFE
:1035400080B20690711C06988842D9DD00BFACE7B6
:103550002DE9F04104460D4616461F462B463246DD
:1035600029462046FFF76DFF3B4622462946204666
:10357000FFF767FF3B46324639462046FFF761FFBB
:103580003B46324629463046FFF75BFFBDE8F081F7
:103590002DE9F04706460F46904600244546032095
:1035A000A0EB480957E0000000200140000C01405A
:1035B0009C01244200002442B881214214050020CD
:1035C0008C0000203A1B91B2721B90B2FFF71DFFD6
:1035D0003A1B91B2721990B2FFF717FF7A1991B2A4
:1035E000321B90B2FFF711FF3A1B91B2721B90B2DF
:1035F000FFF70BFF7A1B91B2321B90B2FFF705FF6A
:103600003A1991B2721990B2FFF7FFFE7A1B91B28C
:10361000321990B2FFF7F9FE7A1991B2321990B2CD
:10362000FFF7F3FE3A1991B2721B90B2FFF7EDFE6D
:10363000641CB9F1000F03DAA000801D814404E08E
:10364000601B80000A3081446D1E7A1991B23219D4
:1036500090B2FFF7DAFEAC42B4DDBDE8F0872DE9A9
:10366000FE4F82468B4616461C46A6F12000C6B287
:1036700004EBD4714910C1F1F001514503DBC4F1F1
:10368000F001594501DABDE8FE8F04EBD4700AEB76
:103690006000401E82B20BEB0400401E83B259460C
:1036A00050460094FFF706FE102C01D0202C4ED17E
:1036B0002046E31704EB5373DB1021464FEAE47C0A
:1036C00004EB5C7C4FEAEC0CA4EBCC0CBCF1000FDF
:1036D00002D04FF0010C01E04FF0000C6344224691
:1036E00004EBD27C4FEA6C0C03FB0CF303F0FF09F4
:1036F000002529E0102C04D1FE4800EB0610475DA0
:1037000007E0202C04D1FC4800EBC610475D00E028
:10371000B9E74FF0000812E007F0800018B1F74851
:103720000088029002E0F648008802900298FFF7B5
:10373000AFFD7806070E08F1010000F0FF08B8F1B0
:10374000080FE9DB681CC5B24D45D3DB80E00C2CCB
:1037500045D12046E31704EB5373DB1021464FEAB3
:10376000E47C04EB5C7C4FEAEC0CA4EBCC0CBCF1ED
:10377000000F02D04FF0010C01E04FF0000C634449
:10378000224604EBD27C4FEA6C0C03FB0CF303F0F3
:10379000FF09002520E006EB4600DA4901EB800036
:1037A000475D4FF0000812E007F0800018B1D348E1
:1037B0000088029002E0D248008802900298FFF749
:1037C00067FD7806070E08F1010000F0FF08B8F168
:1037D000060FE9DB681CC5B24D45DCDB38E0182C70
:1037E00036D12001C11700EB5171C1F3C709002583
:1037F0002CE006EB4600C44901EB0010475D28466B
:1038000005EBD0714910A5EB410111B908200190D9
:1038100001E0042001904FF0000812E007F0800062
:1038200018B1B6480088029002E0B54800880290BE
:103830000298FFF72DFD7806070E08F1010000F051
:10384000FF0801988045E9DB681CC5B24D45D0DB17
:1038500000BF18E710B50246012000E050430B1EE0
:10386000A1F10104E1B2F9D110BD2DE9FF5F0746D6
:1038700091461E460E9D4FF0000A002435E0301B95
:10388000401EC1B20A20FFF7E5FFB9FBF0F00A21A4
:10389000B0FBF1F201FB1208BAF1000F14D1701E57
:1038A000A04211DDB8F1000F0CD1AB4605EBDB7186
:1038B000491001FB047188B22B4620220199FFF7C1
:1038C000CEFE10E04FF0010AAB4605EBDB7149106C
:1038D00001FB047188B208F13001CAB22B4601998C
:1038E000FFF7BDFE00BF601CC4B2B442C7DBBDE839
:1038F000FF9F2DE9FF4F81B0064691461F46DDE947
:103900000E4A00200090002544E0781B401EC1B202
:103910000A20FFF79FFFB9FBF0F00A21B0FBF1F29C
:1039200001FB1208009820BB781EA84221DDB8F1E7
:10393000000F1CD1BAF1000F0CD0A34604EBDB71D1
:10394000491001FB056188B2234630220299FFF736
:1039500086FE0BE0A34604EBDB71491001FB056119
:1039600088B2234620220299FFF779FE10E0012059
:103970000090A34604EBDB71491001FB056188B29E
:1039800008F13001CAB223460299FFF768FE00BF72
:10399000681CC5B2BD42B8DB05B0BDE8F08F2DE9AB
:1039A000F04704460D4690469946DDE9086704F065
:1039B000FF0A08EB04001FFA80F809EB05001FFA64
:1039C00080F914E0444502DB5446A81985B24D4500
:1039D00000DB12E03A78334629462046FFF73FFEE7
:1039E000304606EBD07104EB61018CB27F1C387855
:1039F0007E2802DC38782028E4DA00BFBDE8F087B2
:103A00002DE9F04106460F4614461D46DDF81880A4
:103A10003019F02802DC7819F02801DDBDE8F081CA
:103A20007819401E83B23019401E82B239463046A2
:103A3000FFF740FC01203549086004FB05F0410018
:103A40004046FFF7EEFB00BFE8E738B504460D46F9
:103A50002F485223F022294600902046FFF7D0FF3E
:103A600038BD10B5FFF79EFB7820FFF7CCFA112088
:103A7000FFF7FCFB7820FFF7C6FA3620FFF7F6FBCE
:103A80000020FFF7FCFB3A20FFF7F0FB6520FFF773
:103A9000F6FBB220FFF7EAFB0C20FFF7F0FB0C204F
:103AA000FFF7EDFB0020FFF7EAFB3320FFF7E7FB12
:103AB0003320FFF7E4FBB720FFF7D8FB7220FFF7B6
:103AC000DEFBBB20FFF7D2FB3D20FFF7D8FBC02079
:103AD000FFF7CCFB2C20FFF7D2FBC220FFF7C6FB81
:103AE0000120FFF7CCFBC320FFF7C0FB1920FFF735
:103AF000C6FB0FE0DCA500089CBD00088C00002080
:103B00008E00002068A10008CCAB0008B8812142DB
:103B10001CED0008C420FFF7A9FB2020FFF7AFFB36
:103B2000C620FFF7A3FB0F20FFF7A9FBD020FFF76C
:103B30009DFBA420FFF7A3FBA120FFF7A0FBE02043
:103B4000FFF794FBD020FFF79AFB0420FFF797FBC9
:103B50000D20FFF794FB1120FFF791FB1320FFF7D7
:103B60008EFB2B20FFF78BFB3F20FFF788FB5420B9
:103B7000FFF785FB4C20FFF782FB1820FFF77FFB48
:103B80000D20FFF77CFB0B20FFF779FB1F20FFF7D1
:103B900076FB2320FFF773FBE120FFF767FBD020C4
:103BA000FFF76DFB0420FFF76AFB0C20FFF767FBB4
:103BB0001120FFF764FB1320FFF761FB2C20FFF7B8
:103BC0005EFB3F20FFF75BFB4420FFF758FB5120D3
:103BD000FFF755FB2F20FFF752FB1F20FFF74FFB8E
:103BE0001F20FFF74CFB2020FFF749FB2320FFF7A6
:103BF00046FB2120FFF73AFB2920FFF737FBEF2395
:103C00001A4600210846FFF755FB4FF6FF70FFF7F5
:103C100084FB01200149086010BD0000A00124427E
:103C200008B501212020FCF7A9FF4020ADF80000D5
:103C300010208DF8030003208DF8020069465048DB
:103C4000FCF7E0FC08BD10B5FFF7EAFF40214C4847
:103C5000FCF785FD10BD08B54020ADF800004820F8
:103C60008DF8030069464648FCF7CCFC08BD08B552
:103C70004020ADF8000010208DF8030003208DF8DF
:103C8000020069463E48FCF7BDFC08BD70B5002542
:103C9000002424E000BF40213948FCF746FD0028FD
:103CA000F9D02820FFF78BF940213548FCF73DFD7E
:103CB00001280DD100BF40213148FCF736FD012815
:103CC000F9D0C4F1070101208840C0B2054304E0E7
:103CD000C4F10701012088408543601CC4B2082C50
:103CE000D8DB284670BD10B50446FFF7C0FF402161
:103CF0002348FCF736FD1220FFF785F940212048C4
:103D0000FCF72DFD1E20FFF75AF9FFF7A4FF402115
:103D10001B48FCF70AFD70BB00BF40211848FCF7A8
:103D200004FD0028F9D000BF40211548FCF7FDFC38
:103D30000128F9D0FFF7AAFF2070FFF7A7FF6070F6
:103D4000FFF7A4FFA070FFF7A1FFE070FFF79EFF51
:103D50002071FFF78CFF40210948FCF700FD207817
:103D600061780844A1780844E178084421798842C0
:103D700002D1012010BD01E00020FBE70020F9E79F
:103D80000014014008B501210420FCF7F7FE0420CF
:103D9000ADF8000010208DF8030003208DF802001C
:103DA00069464C48FCF72EFC0820ADF800000420C2
:103DB0008DF8030069464748FCF724FC08BD70B540
:103DC000002404214348FCF7CAFC1420FFF7F7F84D
:103DD00004214048FCF7C5FC00BF3F4800680028AC
:103DE000FBD001218807FDF7E3FC00BF3A480068DB
:103DF0000128FBD000214FF08040FDF7D9FC374867
:103E000000683A2190FBF1F5284605F068FE04466B
:103E1000002032490860204670BD70B5002500269C
:103E2000002400BF08E0FFF7CAFF054629463046D8
:103E300005F0BFFD0646641C052CF4DB284930461E
:103E400005F00FFE70BD08B54FF4C060FCF77EFAB8
:103E50001C208DF8000001208DF8010003208DF852
:103E6000020001208DF803006846FCF774FA08BDD3
:103E70000EB501210846FCF78EFE0120ADF80400C6
:103E80002320ADF800000020ADF80600ADF80200D8
:103E90008DF8080069464FF08040FDF72DF90121AB
:103EA0008807FDF74BFF012211469007FDF79BFCA9
:103EB00001218807FDF77CFC0EBD10B5FFF7C3FF9D
:103EC000FFF7D6FF10BD10B5FFF75CFFFFF7F5FF5A
:103ED00010BD0000000801400C01214274000020C8
:103EE0000000A0400146002001220A7100224A7110
:103EF00002228A7141F2D7220A60704701460020EF
:103F000001220A7102224A7107228A714FF4B462B7
:103F10000A607047F8B506460C46154600276A4603
:103F2000C221304604F0C1FF0746012020709DF8F1
:103F30000000000928703846F8BD70B504460D46EB
:103F400000262946204603F046FE0646304670BD50
:103F5000F8B505460C4600266A461421284604F0AA
:103F6000A4FF06469DF80000C0F3C3002070304651
:103F7000F8BD70B504460D4600262946204603F0DC
:103F800076FE0646304670BD70B504460D460026E6
:103F90002946204603F0CEFE0646304670BD70B579
:103FA00004460D4600262946204603F0F4FE064648
:103FB000304670BD70B504460D46002629462046A1
:103FC00003F07EFF0646304670BD0246002092F8A0
:103FD00032310B7070472DE9F04104460D4616460C
:103FE000002732462946204603F096F80746384611
:103FF000BDE8F08170B504460D46002629462046EE
:1040000003F0ADF80646304670BD2DE9F84307468B
:104010000D46904600260020009000246A460121AB
:10402000384604F042FF06469DF80040002E36D187
:10403000B8F1010F19D1052D13D2DFE805F0030601
:10404000090C0F0044F010040EE044F028040BE0CB
:1040500044F0040408E044F0400405E044F0800427
:1040600002E06FF0030600BF19E0052D13D2DFE870
:1040700005F00306090C0F0004F0EF040EE004F055
:10408000D7040BE004F0FB0408E004F0BF0405E0F3
:1040900004F07F0402E06FF0030600BF00BF9DF84C
:1040A0000000844210D02EB922460121384604F087
:1040B00091FE06460EB987F830412EB9D7F8149014
:1040C00049463846FFF796FF3046BDE8F88370B59D
:1040D00006460C46002522460921304604F0E5FE3E
:1040E00005461DB9207800F001002070284670BDFB
:1040F00070B504460D4600262946204603F0C2F856
:104100000646304670BDF8B506460C4600256A46A0
:104110000121304604F0C9FE05466DB99DF8000046
:1041200086F830019DF8000000F0800010B10120F9
:10413000207001E00020207015B9217886F84C101D
:104140002846F8BD30B503460020062903DB001FD2
:104150000025157003E003F128056C5C147030BD78
:104160002DE9F84305460E4617464FF00008C146B4
:10417000062E2FD2DFE806F00307161A1E1F6C6BFF
:104180004FF0000929E06A464421284604F0A3FEC6
:104190008046B8F1000F02D1BDF8000044024FF094
:1041A00001091AE0EC6B4FF0000916E02C6C4FF09F
:1041B000000912E000BF6A466421284604F08BFE25
:1041C0008046B8F1000F02D1BDF8000044024FF064
:1041D000000902E06FF0030800BF00BFB8F1000F54
:1041E00016D1B9F1010F12D144B905F1340050F8DC
:1041F00026403C6000210C38815509E03C6005F107
:10420000340040F8264001210C38815500E03C6024
:104210004046BDE8F88370B504460D4600262946A1
:10422000204601F068FC0646304670BDF8B50446ED
:104230000E4600276A462021204604F04CFE074621
:1042400077B9BDF8000020B9256A356000212177D3
:1042500006E0BDF80000C500356025620121217728
:104260003846F8BD7CB506460C46002501AAF82163
:10427000304604F030FE05462DB96A46042130462A
:1042800004F03FFE054655B9BDF8040028B1BDF85D
:1042900004100098B0FBF1F020602168B16128465D
:1042A0007CBD02460020137C0B7070472DE9F04165
:1042B00007460D46002429463846FFF7F2FF04461C
:1042C0002CB905F108013846FFF7CCFF04460CB9BC
:1042D000002028732CB905F110013846FFF7A6FF1E
:1042E00004462CB905F114013846FFF794FF044643
:1042F000E4B9002617E04CB905F1240000EB860272
:10430000B1B23846FFF72CFF044300E00DE044B99A
:1043100005F118008219B1B23846FFF713FF0443C4
:1043200000E002E0761C062EE5DB00BF2CB905F1AB
:104330003C013846FFF7E7FE044624B9291D3846FC
:10434000FFF7D6FE04462046BDE8F081F8B50646E4
:104350000F460024002500BF01220B21304604F047
:1043600039FD044600220B21304604F033FD04439E
:104370006A461321304604F098FD0443681CC5B218
:104380009DF8000000F0070018B1032D01DA002CA1
:10439000E2D0032D01DB6FF00B042046F8BD2DE9C0
:1043A000F0478046894617461E46DDF820A00024C7
:1043B000B9F1000F02D06FF00904A0E0142F0CD166
:1043C000BAF1000F01D1102500E001252A46842111
:1043D000404604F0FFFC044691E0152F5AD101221B
:1043E000FF21404604F0F6FC0443002211464046FB
:1043F00004F0F0FC04430022FF21404604F0EAFCF4
:10440000044301228021404604F0E4FC04430222DC
:104410008521404604F0DEFC04430422FF2140468F
:1044200004F0D8FC04430022CD21404604F0D2FC25
:1044300004431122CC21404604F0CCFC0443072263
:10444000FF21404604F0C6FC04430022BE21404642
:1044500004F0C0FC04430622FF21404604F0BAFCED
:1044600004430922CC21404604F0B4FC044300225A
:10447000FF21404604F0AEFC04430122FF214046E8
:1044800004F0A8FC044300221146404604F0A2FCBC
:10449000044334E0A4B9052E0ED2DFE806F003058C
:1044A00007090B0000250AE0012508E0022506E0C7
:1044B000032504E0042502E06FF00A0400BF00BFFA
:1044C0002CB92A460A21404604F084FC044664B90B
:1044D000BAF1000F01D1002500E010252B46EF2294
:1044E0008421404604F0B8FC044614B9DA2000F8F0
:1044F000086024B900214046FFF728FF0446204603
:10450000BDE8F0872DE9F04397B00546002440212F
:1045100007A805F01CFA00200690059081460027A8
:104520000490039000260121284602F04DF804462D
:1045300095F8137195F81461012E05DC01D1202F37
:1045400002D846B90C2F06D904AA03A9284601F0BF
:1045500091FD044605E032463946284601F0D3FE77
:104560000446DFF8D0874CB995F85091B9F1000FA7
:1045700002D1D5F84C8101E0DFF8B88724B9414673
:10458000284602F0F6FE044644B900200423024601
:10459000014600902846FFF702FF04468CB901222D
:1045A000FF21284604F016FC044606AA842128466A
:1045B00004F091FC04430022FF21284604F00AFC89
:1045C000044324B9BDF818000001C5F8D40024B98B
:1045D00007A92846FFF76AFE04464CB905A92846F4
:1045E000FFF775FD04461CB99DF8140085F83101EC
:1045F0002CB9402207A905F1100005F08FF954B934
:1046000005AA0121284604F050FC04461CB99DF877
:10461000140085F830012CB9002211462846FFF716
:10462000F4FC04462CB9002202212846FFF7EDFCD9
:10463000044614B9032085F832012CB902AA0021DE
:104640002846FFF7C8FC04461CB99DF80810E8206E
:1046500041552CB902AA01212846FFF7BCFC0446AB
:104660001CB99DF80810E02041552CB901AA03217E
:10467000284602F0A8FA044614B9E42001994151F1
:104680002CB901AA0421284602F09DFA044614B967
:10469000DC2001994151204617B0BDE8F08370B588
:1046A00004460D46002625B1022D02D06FF0070604
:1046B0001DE06DB900228021204604F08BFB0646E8
:1046C000AEB9022084F83201002084F833010EE0F4
:1046D00000228021204604F07DFB06461EB92046BC
:1046E000FFF710FF064616B9022084F83301304662
:1046F00070BDF8B504460E4600256A468021204666
:1047000004F0D3FB054655B99DF80000012803D1FC
:10471000022084F8330102E0002084F833012846A7
:10472000F8BD70B504460D4600262946204601F026
:10473000BDF90646304670BD70B505460C460026EC
:10474000002C02DBB4F57A7F02DD6FF003060AE08D
:10475000A5F85241B4F57A7F05D0002220212846E1
:1047600004F04EFB0646304670BD02460020B2F80B
:1047700052310B80704702466FF06200704702466C
:104780006FF06200704770B588B004460D46002691
:104790001C2204F1500101A805F0C0F82A4601A925
:1047A000204602F078FE0646304608B070BD2DE97E
:1047B000F04105460C460026274604EBD770C0F3AF
:1047C00047028A21284604F005FB06463046BDE82C
:1047D000F0812DE9F04105460E461446002705F10B
:1047E000280010F80680B8F1000F03D10C3040F813
:1047F000264026E0062E1BD2DFE806F003050D0F4B
:1048000011126C6317E0C4F34F224421284604F0D0
:10481000F7FA07460FE0EC630DE02C640BE000BFF5
:10482000C4F34F226421284604F0EAFA074602E066
:104830006FF0030700BF00BF1FB905F1340040F857
:1048400026403846BDE8F0812DE9F05F04460D466C
:1048500016464FF00009CB460027BA46062D02DB6C
:104860006FF0030941E02EB94FF0000B00274FF025
:10487000010A06E004F1340050F825B04FF0000AB8
:104880000127062D2DD2DFE805F003060E111420B6
:104890002820075528E0CBF34F224421204604F07E
:1048A000AFFA814620E084F82A701DE084F82B706E
:1048B0001AE04FEA4A604FEA10684346FE22602140
:1048C000204604F0C9FA81460EE04FEA0A704FEA2A
:1048D00010684346EF226021204604F0BDFA81466D
:1048E00002E06FF0030900BF00BFB9F1000F09D16A
:1048F00026B9002104F12800415503E0012104F10B
:10490000280041554846BDE8F09F70B592B0054675
:1049100000240123FE228921284604F09DFA044642
:104920002CB900228821284604F054FA04460021BC
:10493000F02041554FF47A70A5F852014FF4C87039
:10494000A5F85401FC48C5F85801FC48C5F8D40046
:10495000296202A92846FFF7A9FC044654B90020A1
:104960008DF808008DF80900402202A905F1100019
:1049700004F0D4FF642005F59A7528804FF4617027
:1049800068804FF4FA70A8804FF4206028810120DD
:104990002877A5F59A7501228021284604F01AFA95
:1049A00004430122FF21284604F014FA04430022A4
:1049B0001146284604F00EFA044301AA9121284624
:1049C00004F073FA04439DF8040085F83A010122CB
:1049D0000021284604F0FEF904430022FF21284666
:1049E00004F0F8F9044300228021284604F0F2F98B
:1049F0000443002609E034B9B1B201222846FFF78A
:104A000023FF044300E002E0761C062EF3DB00BF28
:104A10002CB9002202212846FFF716FF04462CB9C4
:104A2000002203212846FFF70FFF04462CB900227D
:104A300004212846FFF708FF04462CB9002205216F
:104A40002846FFF701FF044634B94FF490120021C5
:104A50002846FFF7BEFE044634B94FF480420121D8
:104A60002846FFF7B6FE044634B94FF40C12022173
:104A70002846FFF7AEFE04462CB900220321284643
:104A8000FFF7A7FE04465CB9FF2085F83001FF223E
:104A90000121284604F09EF90446012085F83201E0
:104AA00014B9002185F81511204612B070BD10B55B
:104AB00003460020012A03D1012483F8504109E074
:104AC0000C782CB1C3F84C11002483F8504101E05C
:104AD0006FF0030010BD10B503460020D3F84C4121
:104AE0000C6093F85041147010BD01466FF06200E5
:104AF000704738B5054600240022BF21284604F03F
:104B000069F9044654B900BF6A46C021284604F03A
:104B1000CCF904469DF800000028F5D1284604F0A1
:104B200006FA0122BF21284604F054F9044654B97C
:104B300000BF6A46C021284604F0B7F904469DF834
:104B400000000028F5D0284604F0F1F914B900203F
:104B500085F83201204638BDF8B504460E460027D8
:104B60006A460121204604F0A0F9074636B99DF8AF
:104B7000000000F07F000090002505E09DF8000097
:104B800040F08000009001259DF800200121204682
:104B900004F020F907462FB99DF8000084F8300191
:104BA00084F84C503846F8BD2DE9F04704460D46D0
:104BB000002794F81C80B4F85291B8F1000F01D18D
:104BC00025620EE0B9F57A7F02D1C5F3CF0600E089
:104BD000002632462021204604F012F9074607B984
:104BE00025623846BDE8F087F8B507460C46002533
:104BF0006A46F821384604F06EF9054675B9BDF8E5
:104C0000000020B1BDF8000004FB00F600E02646DD
:104C100032460421384604F009F9054605B9BC615D
:104C20002846F8BD0246002003290BD003DC39B129
:104C300001290BD105E0142905D0152906D103E07F
:104C400000BF00BF00BF00BF117402E06FF007009B
:104C500000BF00BF70472DE9F04107460D46002414
:104C600029783846FFF7DEFF044624B93846A9689C
:104C7000FFF7BAFF044624B938462969FFF794FFC5
:104C8000044624B938466969FFF74BFD04460026FF
:104C900017E044B905F11800825DB1B23846FFF75C
:104CA000D3FD044300E00EE04CB905F1240050F8B8
:104CB0002620B1B23846FFF78CFD044300E002E045
:104CC000761C062EE5DB00BF2CB995F83C10384663
:104CD000FFF742FF044624B938466968FFF78AF9AE
:104CE00004462046BDE8F08170B505460C46002616
:104CF00022460921284604F06DF806460EB985F8CB
:104D00003141304670BD02466FF062007047024686
:104D10006FF0620070472DE9F04104460D461646DB
:104D2000002732462946204602F077F807463846E3
:104D3000BDE8F08190000020856B0100A47009009F
:104D400030B50446002000251D70052917D2DFE884
:104D500001F003070B0F1300C2F300151D7011E0E3
:104D6000C2F3C0051D700DE0C2F380051D7009E09F
:104D7000C2F380151D7005E0D5091D7002E06FF0CB
:104D8000030000BF00BF30BDF8B506460F4614460D
:104D90000025002000906A460121304604F085F885
:104DA00005463DB923469DF8002039463046FFF7B9
:104DB000C7FF05462846F8BDF8B506460C4600254F
:104DC000002000906A460121304604F06EF8054646
:104DD0003DB923469DF8002000213046FFF7B0FF83
:104DE00005463DB9A31C9DF8002001213046FFF780
:104DF000A7FF05463DB9631C9DF8002002213046FF
:104E0000FFF79EFF05463DB9E31C9DF800200321F6
:104E10003046FFF795FF05463DB9231D9DF800205C
:104E200004213046FFF78CFF05462846F8BD0246B0
:104E3000002005230B70704770B504460D46002610
:104E40002946204603F057FA0646304670BD2DE944
:104E5000F84F05468946164600BF002706EB460078
:104E6000C0EBC6104FF4004101EBC0004FEA104AFE
:104E70006A464946284601F0A6FE04462CB9524629
:104E80004946284601F030FF0446A4B9D5F81480FD
:104E900041462846FFF7AEF8044664B14946284625
:104EA000009A01F021FF074627B941462846FFF73F
:104EB000A1F807463C462046BDE8F88FF8B50646FF
:104EC0000F46144600256A463946304601F07BFEFF
:104ED00005466DB9009800020090009800F5FA7040
:104EE0004FF47A71B0FBF1F020602068000220607E
:104EF0002846F8BD2DE9F04104460D460027B4F8D8
:104F0000528115B1B8F57A7F01D0002600E0266AFB
:104F1000C6F3CF022021204603F072FF07462FB9C7
:104F200015B90021217701E0012121773846BDE83C
:104F3000F08110B502460020137F0B7010BD2DE9E3
:104F4000F04104460D4616460027324629462046C3
:104F500001F076FA07463846BDE8F0812DE9F041C8
:104F600004460D461646002732462946204601F0E3
:104F70007EFA07463846BDE8F08101460020062249
:104F80000A8070472DE9F04104460D461646002779
:104F900032462946204603F0D8F907463846BDE890
:104FA000F08130B503460020062901DB001F03E035
:104FB00003F12E056C5C147030BDF0B587B004466B
:104FC0000E4615460027062E01DB3F1F36E0062E53
:104FD00030D2DFE806F0030710141D26D4F8400194
:104FE00028602AE01C2204F15001684604F096FC77
:104FF0000398286021E0D4F8480128601DE01C22B5
:1050000004F15001684604F089FC0398286014E01C
:105010001C2204F15001684604F080FC03982860CB
:105020000BE01C2204F15001684604F077FC039861
:10503000286002E06FF0030700BF00BF384607B0EA
:10504000F0BD2DE9F04104460D4616460027B8464E
:1050500005B176B90421204601F0B6FA4FF49070FC
:1050600050F804804FF4C870A4F85401C4F8588173
:1050700003E0A4F85451C4F858613846BDE8F08103
:1050800010B503460020B3F854410C80D3F85841C2
:10509000146010BD2DE9F8430746884614461D46A6
:1050A00000266A460E21384603F015FF0646BDF875
:1050B00000000005C008206056B96A460C21384639
:1050C00003F009FF0646BDF800000005C00828608F
:1050D0003046BDE8F8832DE9FC4106460F46002422
:1050E000DA20855D012D03D0022D01D0032D2ED1B4
:1050F0006B4601AA01213046FFF7CCFF0446019818
:10510000B0F57F0F03D80098B0F57F0F1FD9F4B921
:105110002FB1F849304602F02CF9044617E004227A
:10512000FF21304603F056FE044300227021304632
:1051300003F050FE04430022FF21304603F04AFEF4
:10514000044300228021304603F044FE04432046FD
:10515000BDE8FC812DE9FC4106460024012701A998
:105160003046FFF79EF801228021304603F032FEE0
:1051700004460122FF21304603F02CFE04460022A3
:105180001146304603F026FE044696F83A21912156
:10519000304603F01FFE044601220021304603F092
:1051A00019FE04460022FF21304603F013FE044698
:1051B00000228021304603F00DFE04469DF80400D5
:1051C00020B1012823D0032843D131E0012200215E
:1051D000304603F0FFFD04460097BCB9002500BF30
:1051E0002DB16A460021304603F05FFE04466D1C77
:1051F0009DF800003840B84203D114B9B5F5FA6FF4
:10520000EED3B5F5FA6F01D36FF0060424E024B9AC
:1052100001213046FFF75FFF04460222002130469D
:1052200003F0D8FD044614B9042086F8320113E0D7
:1052300024B901213046FFF74EFF04460422002125
:10524000304603F0C7FD044614B9042086F8320145
:1052500002E06FF0070400BF00BF2046BDE8FC81FC
:1052600038B50546002469462846FFF71AF8044673
:1052700034B99DF8000018B92846FFF76BFF0446C3
:105280001CB9284601F01DF904462CB99DF8000010
:1052900010B9032085F83201204638BD02466FF070
:1052A000620070472DE9F04104460D46164600277E
:1052B000012332462946204600F0B6FE074638460E
:1052C000BDE8F08130B504466FF0620030BD2DE9D5
:1052D000F04104460D461646002732462946204630
:1052E00000F0DEFA07463846BDE8F0812DE9F041CE
:1052F00004460D461646002732462946204600F051
:1053000063FB07463846BDE8F08170B505460024CA
:1053100000221146284603F05DFD04460122FF21CC
:10532000284603F057FD044600221146284603F0A4
:1053300051FD044600229121284603F04BFD04460E
:1053400001220021284603F045FD04460022FF21EA
:10535000284603F03FFD044614B9032085F83201C6
:1053600024B900212846FFF7B6FE0446204670BD4A
:10537000F8B505460C4600266A461321284603F078
:1053800094FD06469DF8000000F0070020609DF89F
:10539000000000F0180008B16FF005063046F8BDB7
:1053A0002DE9FC4105460C460026DA20475D042F16
:1053B0000DD169462846FFF7DBFF06460098042812
:1053C00002D10120207013E00020207010E001AA1B
:1053D0001421284603F069FD06464EB99DF80400E5
:1053E00000F0010010B10120207001E000202070C9
:1053F0003046BDE8FC8102466FF0620070472DE93F
:10540000F04F93B005460C464FF000080C230AAA53
:105410001421284603F0C3FC8046B8F1000F6BD17D
:105420000020A07520609DF833009DF8321000EB3D
:10543000012087B2002060609DF82F009DF82E109B
:1054400000EB01200004C609E6609DF831009DF8DC
:10545000301000EB012080B20F900F9840022061C5
:105460009DF82B009DF82A1000EB01201FFA80F90F
:10547000A4F814909DF828001290B5F852010D90F0
:1054800095F831B10D98B0F57A7F2AD00D98784310
:1054900000F5FA704FF47A7190FBF1F087B2288C26
:1054A00080B20E90287F10901098D0B10E9800FB1B
:1054B00009F0A6EB202040B9BBF1000F02D042F268
:1054C000B82A0DE048F6E02A0AE007FB06F10E983C
:1054D00000FB09F0A6EB2020B1FBF0F01FFA80FAE8
:1054E0005746BBF1000F08D0B8102081B807000E56
:1054F000E07505E08301002013E027810020E075BE
:1055000011A84B463246CDE900402846129902F0D8
:1055100023FA40EA0808B8F1000F02D19DF84400D0
:105520002076B8F1000F20D11C2205F1500103A80C
:1055300004F0F4F92089ADF81400E07D8DF8230023
:105540006089ADF8160060680490E06806902069F4
:105550000790A08AADF82000207E8DF824001C2240
:1055600003A905F1500004F0D9F9404613B0BDE895
:10557000F08F78B504460D460026002000906A465C
:1055800002212046FEF7DEFD06469DF8000018B118
:10559000D4F84801286001E06FF01D06304678BD60
:1055A00002466FF06200704770B505460E46002453
:1055B00000212846FFF736FB04461CB92846FFF7B2
:1055C0004FFE044624B931462846FFF718FF04462B
:1055D00024B900212846FEF7B9FE0446204670BDD6
:1055E00002460020012900D0001F7047024600201B
:1055F00001230B7070470246002001230B70704797
:105600002DE9F84F82460E4617469846DDF8289059
:10561000002539465046FEF744FE05464DB916B101
:105620006FF0090505E06A460A21504603F03DFC8B
:105630000546C5B99DF8000000F0070005280ED208
:10564000DFE800F0030507090B0000240AE001244D
:1056500008E0022406E0032404E0042402E06FF0E2
:105660000A0500BF00BF2DB96A468421504603F0E9
:105670001CFC05465DB99DF8000000F0100018B94B
:10568000002089F8000002E0012089F8000025B917
:1056900088F80040DA2000F80A402846BDE8F88F74
:1056A0002DE9F0470746894614461D460026C4F3F7
:1056B0004B4842460E21384603F0A2FB06463EB94F
:1056C000C5F34B4842460C21384603F099FB064689
:1056D0003046BDE8F087F8B505460E4600240020A8
:1056E00000900122FF21284603F074FB04462CB9E8
:1056F0006A460421284603F0D8FB04462CB9002250
:10570000FF21284603F066FB04469DF80000306048
:105710009DF8000050BB01228021284603F05AFB6F
:1057200004460122FF21284603F054FB04460022D0
:105730001146284603F04EFB044695F83A21912184
:10574000284603F047FB044601220021284603F0C7
:1057500041FB04460022FF21284603F03BFB0446A0
:1057600000228021284603F035FB04462046F8BD80
:1057700002466FF06200704770B506460D46002481
:105780000122FF21304603F025FB04462A46402132
:10579000304603F035FB04430022FF21304603F07E
:1057A00019FB0443204670BD70B506460D46002423
:1057B0000122FF21304603F00DFB04462A4640211A
:1057C000304603F088FB04430022FF21304603F0FB
:1057D00001FB0443204670BD2DE9F04106460D460D
:1057E0000024EFB20122FF21304603F0F3FA044611
:1057F0003A464221304603F0EDFA04430022FF21ED
:10580000304603F0E7FA04432046BDE8F081F8B5DE
:1058100006460D4600240122FF21304603F0DAFA45
:1058200004466A464221304603F03FFB044300220F
:10583000FF21304603F0CEFA04439DF80000288093
:105840002046F8BD2DE9F04104460D4616460027D6
:1058500032462946204600F056FD07463846BDE848
:10586000F0812DE9F04104460D46164600273246E8
:105870002946204600F0A8FD07463846BDE8F081DD
:105880002DE9F04104460D461646002732462946CA
:10589000204600F0EFFB07463846BDE8F0810000E7
:1058A0002DE9F74F8EB00D460024A34600200D9041
:1058B0000C9000260B9005B9041F24B900210E9806
:1058C000FFF718FB04462CB9002203210E98FEF7BF
:1058D000BBFF0446002C2FD1A34600200D900C9056
:1058E00000260B9021E004A90E98FFF75DFE044608
:1058F00004B11DE09DF8280098B9BDF8180058447F
:105900001FFA80FB07990C9808440C90BDF82400FE
:10591000C11700EB11610A120D99114489B20D9162
:10592000761C0B98401CC0B20B900B983228DADB27
:1059300000BF0EB96FF00504F4BB0C98B0FBF6F095
:1059400003904FEA0B40B0FBF6F80D980004B0FB53
:10595000F6F00290029800F500404FEA104905F574
:1059600000404FEA104AB9F1000F04D0BAF1000F1D
:1059700001D0A84501D3002712E005F500404FEA09
:10598000104A0398B0FBF9F00190B8FBFAF0C0F5AB
:105990008030019948430190019800F50040070CC0
:1059A0001098076024B901210E98FFF7A3FA044666
:1059B00014B939460E9800E002E0FFF7F5F8044606
:1059C000204611B0BDE8F08F2DE9F74F8AB00E46A2
:1059D00015460024A04600270020019006B9041FA8
:1059E00024B900210A98FEF79CFE04462CB902AAAD
:1059F00000210A98FFF7C8F904462CB90022114685
:105A00000A98FEF702FB04462CB9002203210A98EB
:105A1000FEF71AFF0446FCB94FF0000800270020EB
:105A2000019012E003A90A98FFF7BEFD044604B1F5
:105A30000EE09DF8240028B9BDF8140040441FFA78
:105A400080F87F1C0198401C019001983228E9DB06
:105A500000BF0FB96FF00504D4B94FEA0840B0FB9E
:105A6000F7F909F500404FEA104A06F500404FEA01
:105A7000104BABEB0A004FF47A71484328603CB9F5
:105A800029680A98416229680A98FEF74AFE044686
:105A900044B99DF8080028B1012200210A98FEF7B8
:105AA000B4FA044620460DB0BDE8F08F2DE9F0476A
:105AB00080460C464FF00009FD4EFE4F4FF4805AD1
:105AC000B44201DD344602E0BC4200DA3C46002C20
:105AD00003DBFA2094FBF0F504E0FA2094FBF0F0ED
